{
    "_format": "hh-sol-artifact-1",
    "contractName": "RadioStations",
    "sourceName": "contracts/Radio.sol",
    "abi": [
        {
            "inputs": [],
            "stateMutability": "payable",
            "type": "constructor"
        },
        {
            "anonymous": false,
            "inputs": [
                {
                    "indexed": true,
                    "internalType": "address",
                    "name": "from",
                    "type": "address"
                },
                {
                    "indexed": false,
                    "internalType": "uint256",
                    "name": "timestamp",
                    "type": "uint256"
                },
                {
                    "indexed": false,
                    "internalType": "string",
                    "name": "station",
                    "type": "string"
                },
                {
                    "indexed": false,
                    "internalType": "string",
                    "name": "name",
                    "type": "string"
                },
                {
                    "indexed": false,
                    "internalType": "string",
                    "name": "link",
                    "type": "string"
                },
                {
                    "indexed": false,
                    "internalType": "string",
                    "name": "message",
                    "type": "string"
                }
            ],
            "name": "NewSong",
            "type": "event"
        },
        {
            "anonymous": false,
            "inputs": [
                {
                    "indexed": false,
                    "internalType": "uint256",
                    "name": "timestamp",
                    "type": "uint256"
                },
                {
                    "indexed": false,
                    "internalType": "string",
                    "name": "station",
                    "type": "string"
                }
            ],
            "name": "NewStation",
            "type": "event"
        },
        {
            "inputs": [
                {
                    "internalType": "string",
                    "name": "_station",
                    "type": "string"
                }
            ],
            "name": "createStation",
            "outputs": [],
            "stateMutability": "nonpayable",
            "type": "function"
        },
        {
            "inputs": [],
            "name": "getAllSongs",
            "outputs": [
                {
                    "components": [
                        {
                            "internalType": "address",
                            "name": "waver",
                            "type": "address"
                        },
                        {
                            "internalType": "string",
                            "name": "station",
                            "type": "string"
                        },
                        {
                            "internalType": "string",
                            "name": "name",
                            "type": "string"
                        },
                        {
                            "internalType": "string",
                            "name": "link",
                            "type": "string"
                        },
                        {
                            "internalType": "string",
                            "name": "message",
                            "type": "string"
                        },
                        {
                            "internalType": "uint256",
                            "name": "timestamp",
                            "type": "uint256"
                        }
                    ],
                    "internalType": "struct RadioStations.Song[]",
                    "name": "",
                    "type": "tuple[]"
                }
            ],
            "stateMutability": "view",
            "type": "function"
        },
        {
            "inputs": [],
            "name": "getAllStations",
            "outputs": [
                {
                    "components": [
                        {
                            "internalType": "string",
                            "name": "station",
                            "type": "string"
                        },
                        {
                            "internalType": "uint256",
                            "name": "timestamp",
                            "type": "uint256"
                        }
                    ],
                    "internalType": "struct RadioStations.Station[]",
                    "name": "",
                    "type": "tuple[]"
                }
            ],
            "stateMutability": "view",
            "type": "function"
        },
        {
            "inputs": [],
            "name": "getTotalSongs",
            "outputs": [
                {
                    "internalType": "uint256",
                    "name": "",
                    "type": "uint256"
                }
            ],
            "stateMutability": "view",
            "type": "function"
        },
        {
            "inputs": [],
            "name": "owner",
            "outputs": [
                {
                    "internalType": "address",
                    "name": "",
                    "type": "address"
                }
            ],
            "stateMutability": "view",
            "type": "function"
        },
        {
            "inputs": [
                {
                    "internalType": "string",
                    "name": "_station",
                    "type": "string"
                },
                {
                    "internalType": "string",
                    "name": "_name",
                    "type": "string"
                },
                {
                    "internalType": "string",
                    "name": "_link",
                    "type": "string"
                },
                {
                    "internalType": "string",
                    "name": "_message",
                    "type": "string"
                }
            ],
            "name": "postSong",
            "outputs": [],
            "stateMutability": "nonpayable",
            "type": "function"
        }
    ],
    "bytecode": "0x60806040526200004f6040518060400160405280600a81526020017f4120636f6e7472616374000000000000000000000000000000000000000000008152506200009560201b620008a91760201c565b336000806101000a81548173ffffffffffffffffffffffffffffffffffffffff021916908373ffffffffffffffffffffffffffffffffffffffff16021790555062000229565b6200013581604051602401620000ac9190620001a2565b6040516020818303038152906040527f41304fac000000000000000000000000000000000000000000000000000000007bffffffffffffffffffffffffffffffffffffffffffffffffffffffff19166020820180517bffffffffffffffffffffffffffffffffffffffffffffffffffffffff83818316178352505050506200013860201b60201c565b50565b60008151905060006a636f6e736f6c652e6c6f679050602083016000808483855afa5050505050565b60006200016e82620001c6565b6200017a8185620001d1565b93506200018c818560208601620001e2565b620001978162000218565b840191505092915050565b60006020820190508181036000830152620001be818462000161565b905092915050565b600081519050919050565b600082825260208201905092915050565b60005b8381101562000202578082015181840152602081019050620001e5565b8381111562000212576000848401525b50505050565b6000601f19601f8301169050919050565b6113f280620002396000396000f3fe608060405234801561001057600080fd5b50600436106100615760003560e01c806292c5e21461006657806319d2374e146100825780632118f9c41461009e57806329ef6862146100bc5780638c9db2b4146100da5780638da5cb5b146100f8575b600080fd5b610080600480360381019061007b9190610bef565b610116565b005b61009c60048036038101906100979190610bae565b6102ff565b005b6100a6610438565b6040516100b39190610fca565b60405180910390f35b6100c4610533565b6040516100d19190610fa8565b60405180910390f35b6100e261083a565b6040516100ef919061108e565b60405180910390f35b610100610885565b60405161010d9190610f8d565b60405180910390f35b60018060008282546101289190611218565b9250508190555061016e6040518060400160405280601481526020017f25732068617320706f73746564206120736f6e6700000000000000000000000081525033610942565b60036040518060c001604052803373ffffffffffffffffffffffffffffffffffffffff16815260200186815260200185815260200184815260200183815260200142815250908060018154018082558091505060019003906000526020600020906006020160009091909190915060008201518160000160006101000a81548173ffffffffffffffffffffffffffffffffffffffff021916908373ffffffffffffffffffffffffffffffffffffffff160217905550602082015181600101908051906020019061023f929190610aa3565b50604082015181600201908051906020019061025c929190610aa3565b506060820151816003019080519060200190610279929190610aa3565b506080820151816004019080519060200190610296929190610aa3565b5060a0820151816005015550503373ffffffffffffffffffffffffffffffffffffffff167f8485ff5b54a977ffeb06ac63eb232fe6b1913200f354075d1f5189464545fe2042868686866040516102f19594939291906110a9565b60405180910390a250505050565b60008054906101000a900473ffffffffffffffffffffffffffffffffffffffff1673ffffffffffffffffffffffffffffffffffffffff163373ffffffffffffffffffffffffffffffffffffffff161461038d576040517f08c379a00000000000000000000000000000000000000000000000000000000081526004016103849061106e565b60405180910390fd5b6103cc6040518060400160405280601881526020017f257320686173206372656174656420612073746174696f6e000000000000000081525033610942565b600260405180604001604052808381526020014281525090806001815401808255809150506001900390600052602060002090600202016000909190919091506000820151816000019080519060200190610428929190610aa3565b5060208201518160010155505050565b60606002805480602002602001604051908101604052809291908181526020016000905b8282101561052a578382906000526020600020906002020160405180604001604052908160008201805461048f906112ec565b80601f01602080910402602001604051908101604052809291908181526020018280546104bb906112ec565b80156105085780601f106104dd57610100808354040283529160200191610508565b820191906000526020600020905b8154815290600101906020018083116104eb57829003601f168201915b505050505081526020016001820154815250508152602001906001019061045c565b50505050905090565b60606003805480602002602001604051908101604052809291908181526020016000905b8282101561083157838290600052602060002090600602016040518060c00160405290816000820160009054906101000a900473ffffffffffffffffffffffffffffffffffffffff1673ffffffffffffffffffffffffffffffffffffffff1673ffffffffffffffffffffffffffffffffffffffff1681526020016001820180546105e0906112ec565b80601f016020809104026020016040519081016040528092919081815260200182805461060c906112ec565b80156106595780601f1061062e57610100808354040283529160200191610659565b820191906000526020600020905b81548152906001019060200180831161063c57829003601f168201915b50505050508152602001600282018054610672906112ec565b80601f016020809104026020016040519081016040528092919081815260200182805461069e906112ec565b80156106eb5780601f106106c0576101008083540402835291602001916106eb565b820191906000526020600020905b8154815290600101906020018083116106ce57829003601f168201915b50505050508152602001600382018054610704906112ec565b80601f0160208091040260200160405190810160405280929190818152602001828054610730906112ec565b801561077d5780601f106107525761010080835404028352916020019161077d565b820191906000526020600020905b81548152906001019060200180831161076057829003601f168201915b50505050508152602001600482018054610796906112ec565b80601f01602080910402602001604051908101604052809291908181526020018280546107c2906112ec565b801561080f5780601f106107e45761010080835404028352916020019161080f565b820191906000526020600020905b8154815290600101906020018083116107f257829003601f168201915b5050505050815260200160058201548152505081526020019060010190610557565b50505050905090565b600061087d6040518060400160405280600e81526020017f546f74616c20736f6e67733a25640000000000000000000000000000000000008152506001546109de565b600154905090565b60008054906101000a900473ffffffffffffffffffffffffffffffffffffffff1681565b61093f816040516024016108bd9190610fec565b6040516020818303038152906040527f41304fac000000000000000000000000000000000000000000000000000000007bffffffffffffffffffffffffffffffffffffffffffffffffffffffff19166020820180517bffffffffffffffffffffffffffffffffffffffffffffffffffffffff8381831617835250505050610a7a565b50565b6109da828260405160240161095892919061100e565b6040516020818303038152906040527f319af333000000000000000000000000000000000000000000000000000000007bffffffffffffffffffffffffffffffffffffffffffffffffffffffff19166020820180517bffffffffffffffffffffffffffffffffffffffffffffffffffffffff8381831617835250505050610a7a565b5050565b610a7682826040516024016109f492919061103e565b6040516020818303038152906040527f9710a9d0000000000000000000000000000000000000000000000000000000007bffffffffffffffffffffffffffffffffffffffffffffffffffffffff19166020820180517bffffffffffffffffffffffffffffffffffffffffffffffffffffffff8381831617835250505050610a7a565b5050565b60008151905060006a636f6e736f6c652e6c6f679050602083016000808483855afa5050505050565b828054610aaf906112ec565b90600052602060002090601f016020900481019282610ad15760008555610b18565b82601f10610aea57805160ff1916838001178555610b18565b82800160010185558215610b18579182015b82811115610b17578251825591602001919060010190610afc565b5b509050610b259190610b29565b5090565b5b80821115610b42576000816000905550600101610b2a565b5090565b6000610b59610b5484611149565b611118565b905082815260208101848484011115610b7157600080fd5b610b7c8482856112aa565b509392505050565b600082601f830112610b9557600080fd5b8135610ba5848260208601610b46565b91505092915050565b600060208284031215610bc057600080fd5b600082013567ffffffffffffffff811115610bda57600080fd5b610be684828501610b84565b91505092915050565b60008060008060808587031215610c0557600080fd5b600085013567ffffffffffffffff811115610c1f57600080fd5b610c2b87828801610b84565b945050602085013567ffffffffffffffff811115610c4857600080fd5b610c5487828801610b84565b935050604085013567ffffffffffffffff811115610c7157600080fd5b610c7d87828801610b84565b925050606085013567ffffffffffffffff811115610c9a57600080fd5b610ca687828801610b84565b91505092959194509250565b6000610cbe8383610e94565b905092915050565b6000610cd28383610f32565b905092915050565b610ce38161126e565b82525050565b610cf28161126e565b82525050565b6000610d0382611199565b610d0d81856111d4565b935083602082028501610d1f85611179565b8060005b85811015610d5b5784840389528151610d3c8582610cb2565b9450610d47836111ba565b925060208a01995050600181019050610d23565b50829750879550505050505092915050565b6000610d78826111a4565b610d8281856111e5565b935083602082028501610d9485611189565b8060005b85811015610dd05784840389528151610db18582610cc6565b9450610dbc836111c7565b925060208a01995050600181019050610d98565b50829750879550505050505092915050565b6000610ded826111af565b610df781856111f6565b9350610e078185602086016112b9565b610e10816113ab565b840191505092915050565b6000610e26826111af565b610e308185611207565b9350610e408185602086016112b9565b610e49816113ab565b840191505092915050565b6000610e61600983611207565b91507f4e6f74206f776e657200000000000000000000000000000000000000000000006000830152602082019050919050565b600060c083016000830151610eac6000860182610cda565b5060208301518482036020860152610ec48282610de2565b91505060408301518482036040860152610ede8282610de2565b91505060608301518482036060860152610ef88282610de2565b91505060808301518482036080860152610f128282610de2565b91505060a0830151610f2760a0860182610f6f565b508091505092915050565b60006040830160008301518482036000860152610f4f8282610de2565b9150506020830151610f646020860182610f6f565b508091505092915050565b610f78816112a0565b82525050565b610f87816112a0565b82525050565b6000602082019050610fa26000830184610ce9565b92915050565b60006020820190508181036000830152610fc28184610cf8565b905092915050565b60006020820190508181036000830152610fe48184610d6d565b905092915050565b600060208201905081810360008301526110068184610e1b565b905092915050565b600060408201905081810360008301526110288185610e1b565b90506110376020830184610ce9565b9392505050565b600060408201905081810360008301526110588185610e1b565b90506110676020830184610f7e565b9392505050565b6000602082019050818103600083015261108781610e54565b9050919050565b60006020820190506110a36000830184610f7e565b92915050565b600060a0820190506110be6000830188610f7e565b81810360208301526110d08187610e1b565b905081810360408301526110e48186610e1b565b905081810360608301526110f88185610e1b565b9050818103608083015261110c8184610e1b565b90509695505050505050565b6000604051905081810181811067ffffffffffffffff8211171561113f5761113e61137c565b5b8060405250919050565b600067ffffffffffffffff8211156111645761116361137c565b5b601f19601f8301169050602081019050919050565b6000819050602082019050919050565b6000819050602082019050919050565b600081519050919050565b600081519050919050565b600081519050919050565b6000602082019050919050565b6000602082019050919050565b600082825260208201905092915050565b600082825260208201905092915050565b600082825260208201905092915050565b600082825260208201905092915050565b6000611223826112a0565b915061122e836112a0565b9250827fffffffffffffffffffffffffffffffffffffffffffffffffffffffffffffffff038211156112635761126261131e565b5b828201905092915050565b600061127982611280565b9050919050565b600073ffffffffffffffffffffffffffffffffffffffff82169050919050565b6000819050919050565b82818337600083830152505050565b60005b838110156112d75780820151818401526020810190506112bc565b838111156112e6576000848401525b50505050565b6000600282049050600182168061130457607f821691505b602082108114156113185761131761134d565b5b50919050565b7f4e487b7100000000000000000000000000000000000000000000000000000000600052601160045260246000fd5b7f4e487b7100000000000000000000000000000000000000000000000000000000600052602260045260246000fd5b7f4e487b7100000000000000000000000000000000000000000000000000000000600052604160045260246000fd5b6000601f19601f830116905091905056fea2646970667358221220ef3da0ac1975b7835ff5581f1a86e45c2fc4dc3cb214e6882e223ade490b347c64736f6c63430008000033",
    "linkReferences": {},
    "deployedLinkReferences": {}
}